:100000000C942A000C94CC030C9447000C944700E9
:100010000C9447000C9447000C9447000C94470044
:100020000C9447000C9447000C9447000C94470034
:100030000C9447000C9447000C9447000C94470024
:100040000C9447000C9447000C9447000C94470014
:100050000C94470011241FBECFE5D8E0DEBFCDBF12
:1000600010E0A0E6B0E0E0E3FEE002C005900D92F3
:10007000A838B107D9F720E0A8E8B0E001C01D9288
:10008000AA38B207E1F70E9424020C9416070C94D8
:100090000000FC018FEF87BBA281B3818C911C9281
:1000A0002FE789EA93E0215080409040E1F700C0BB
:1000B0000000A281B3818C9180738C938C918063BA
:1000C0008C93A281B3818C9188608C9325E82A95CA
:1000D000F1F70000A281B3818C91877F8C938AE134
:1000E0008A95F1F700C08FE097E20197F1F700C021
:1000F0000000A281B3818C9180738C938C9180637A
:100100008C93A281B3818C9188608C9395E89A95A9
:10011000F1F70000A281B3818C91877F8C932AE153
:100120002A95F1F700C08FE891E00197F1F700C040
:100130000000A281B3818C9180738C938C91806339
:100140008C93A281B3818C9188608C9395E89A9569
:10015000F1F70000A281B3818C91877F8C932AE113
:100160002A95F1F700C08FE891E00197F1F700C000
:100170000000A281B3818C9180728C938C918062FB
:100180008C93A281B3818C9188608C9395E89A9529
:10019000F1F70000A281B3818C91877F8C932AE1D3
:1001A0002A95F1F700C08FEF91EE24E08150904046
:1001B0002040E1F700C00000A281B3818C918072E1
:1001C0008C938C9180628C93A281B3818C91886096
:1001D0008C9385E88A95F1F70000A281B3818C9118
:1001E000877F8C939AE19A95F1F700C0A281B38141
:1001F0008C9180788C938C9180688C93A281B38150
:100200008C9188608C9325E82A95F1F70000A281F3
:10021000B3818C91877F8C938AE18A95F1F700C036
:100220008FE99FE00197F1F700C00000A281B38140
:100230008C911C928C918C93A281B3818C9188605B
:100240008C9395E89A95F1F70000A281B3818C9187
:10025000877F8C932AE12A95F1F700C0A281B381B0
:100260008C9180788C938C9180688C93A281B381DF
:100270008C9188608C9385E88A95F1F70000A281C3
:10028000B3818C91877F8C939AE19A95F1F700C0A6
:100290008FE99FE00197F1F700C00000A281B381D0
:1002A0008C911C928C918C93A281B3818C918860EB
:1002B0008C9395E89A95F1F70000A281B3818C9117
:1002C000877F8C932AE12A95F1F700C0A281B38140
:1002D0008C9180718C938C9180618C93A281B3817D
:1002E0008C9188608C9385E88A95F1F70000A28153
:1002F000B3818C91877F8C939AE19A95F1F700C036
:100300008FE99FE00197F1F700C000008FE697E1C9
:100310000197F1F700C00000A281B3818C911C927B
:100320008C918C93A281B3818C9188608C9395E899
:100330009A95F1F70000A281B3818C91877F8C930D
:100340002AE12A95F1F700C0A281B3818C918076D1
:100350008C938C9180668C93A281B3818C91886000
:100360008C9385E88A95F1F70000A281B3818C9186
:10037000877F8C939AE19A95F1F700C08FE99FE00F
:100380000197F1F700C00000A281B3818C911C920B
:100390008C918C93A281B3818C9188608C9395E829
:1003A0009A95F1F70000A281B3818C91877F8C939D
:1003B0002AE12A95F1F700C0A281B3818C91807F58
:1003C0008C938C91806F8C93A281B3818C91886087
:1003D0008C9385E88A95F1F700000280F381E02D87
:1003E0008081877F80839AE19A95F1F700C08FE939
:1003F0009FE00197F1F700C0000008953F9A3E9AF0
:100400003D9AD09887B1807E87B9379A359A86B160
:10041000866086B9309880B78F7180BF369A08950C
:100420008F9A85B5806485BD85B5886085BD85B5A5
:10043000806285BD85B58F7E85BD85B5866085BDAD
:1004400085B58E7F85BD0895CF93DF93CDB7DEB799
:10045000A6970FB6F894DEBF0FBECDBF8BB78064F2
:100460008BBF85B7826085BF87E390E09A838983DD
:1004700088E390E09C838B83CE0101960E94490023
:100480000E94FE018EB582608EBD8EB58A7F8EBDC4
:100490000E94100278940F2EF0E68F2EF0E09F2E2F
:1004A000F02D5E0126E1A20EB11C3E0185E0680E32
:1004B000711C0F2EFCE62F2EF0E03F2EF02D85B1A3
:1004C00083BDC0908800D0908900C601A0E0B0E054
:1004D0009C01AD01220F331F441F551F60E077E8D8
:1004E00083E993E00E94F603522E432E022F132F2E
:1004F00083B524E6289FC00111246FEF70E00E94AD
:10050000E2037B01EB81FC8180811082808180830A
:10051000EB81FC8180818860808385E88A95F1F792
:100520000000EB81FC818081877F80839AE19A952E
:10053000F1F700C0EB81FC81808180718083808134
:1005400080618083EB81FC8180818860808325E8E5
:100550002A95F1F70000EB81FC818081877F808301
:100560008AE18A95F1F700C08FE99FE00197F1F7E2
:1005700000C000008FE697E10197F1F700C000008E
:10058000DF92CF929F928F92BF92AF920E942C04E3
:100590000F900F900F900F900F900F90083E134008
:1005A000A0F4FF24FF92EF924F925F923F922F921E
:1005B0007F926F920E942C040FB6F894DEBF0FBE9C
:1005C000CDBF8E89811114C05AC0FF24FF92EF92D3
:1005D0004F925F928AE790E09F938F937F926F9202
:1005E0000E942C040FB6F894DEBF0FBECDBFE9CF3A
:1005F000FE017796982F907F9460AB81BC812C91FF
:1006000029232C932C91922B9C93AB81BC819C91A0
:1006100098609C9395E89A95F1F70000AB81BC81B6
:100620009C91977F9C932AE12A95F1F700C020E1E5
:10063000829FC00111248460AB81BC819C9198236E
:100640009C939C91892B8C93AB81BC818C9188600D
:100650008C9385E88A95F1F70000AB81BC818C9181
:10066000877F8C939AE19A95F1F700C08FE99FE01C
:100670000197F1F700C0000081918111BBCFEB81A0
:10068000FC818081807C80838081806C8083EB8191
:10069000FC8180818860808395E89A95F1F700005D
:1006A000EB81FC818081877F80832AE12A95F1F7A5
:1006B00000C0EB81FC818081108280818083EB818E
:1006C000FC8180818860808385E88A95F1F700004D
:1006D000EB81FC818081877F80839AE19A95F1F795
:1006E00000C08FE99FE00197F1F700C000008D8105
:1006F000882309F447C0FE013696982F907F9460B6
:10070000AB81BC812C9129232C932C91922B9C930F
:10071000AB81BC819C9198609C9395E89A95F1F788
:100720000000AB81BC819C91977F9C932AE12A9524
:10073000F1F700C020E1829FC00111248460AB81E9
:10074000BC819C9198239C939C91892B8C93AB8129
:10075000BC818C9188608C9385E88A95F1F70000C4
:10076000AB81BC818C91877F8C939AE19A95F1F74C
:1007700000C08FE99FE00197F1F700C00000819170
:100780008111BBCF9FE725EB81E091502040804055
:10079000E1F700C0000093CE1F920F920FB60F92A8
:1007A00011248F939F938CB59DB59093890080936E
:1007B00088001DBC1CBC9F918F910F900FBE0F90A5
:1007C0001F90189597FB072E16F4009407D077FD1D
:1007D00009D00E94180407FC05D03EF4909581953D
:1007E0009F4F0895709561957F4F0895A1E21A2E4D
:1007F000AA1BBB1BFD010DC0AA1FBB1FEE1FFF1FC5
:10080000A217B307E407F50720F0A21BB30BE40B14
:10081000F50B661F771F881F991F1A9469F760955B
:100820007095809590959B01AC01BD01CF01089515
:10083000AA1BBB1B51E107C0AA1FBB1FA617B70706
:1008400010F0A61BB70B881F991F5A95A9F7809522
:100850009095BC01CD010895AEE0B0E0E2E3F4E094
:100860000C94ED060D891E8986E08C831A8309831A
:100870008FEF9FE79E838D83AE01475E5F4F6F8949
:10088000788DCE0101960E944E04EF81F885E00F2D
:10089000F11F10822E96E4E00C940907ABE0B0E063
:1008A000E4E5F4E00C94DF066C017B018A01FC01B5
:1008B00017821682838181FFCCC1CE0101963C0153
:1008C000F6019381F70193FD859193FF81917F015B
:1008D000882309F4BAC1853239F493FD859193FFD9
:1008E00081917F01853229F4B60190E00E9445068E
:1008F000E7CF912C212C312CFFE1F315D8F08B326E
:1009000079F038F4803279F08332A1F4232D20611C
:100910001DC08D3261F0803369F4232D216016C033
:10092000832D8260382EE32DE4603E2E2AC0F32D05
:10093000F8601DC037FC2DC020ED280F2A3040F094
:100940008E32B9F436FC81C1232D2064322E19C0B9
:1009500036FE06C08AE0989E200D1124922E11C00A
:10096000EAE02E9E200D1124222EF32DF0623F2E60
:1009700008C08C3621F4832D8068382E02C088365A
:1009800041F4F70193FD859193FF81917F018111DE
:10099000B3CF982F9F7D9554933028F40C5F1F4F51
:1009A0009FE399830DC0833631F0833771F083352F
:1009B00009F059C021C0F801808189830E5F1F4F63
:1009C00088248394912C530113C02801F2E04F0E28
:1009D000511CF801A080B18036FE03C0692D70E083
:1009E00002C06FEF7FEFC5010E943A064C01820101
:1009F000F32DFF773F2E16C0280122E0420E511C36
:100A0000F801A080B18036FE03C0692D70E002C0FD
:100A10006FEF7FEFC5010E942F064C01F32DF068A8
:100A20003F2E820133FC1BC0822D90E08816990670
:100A3000B0F4B60180E290E00E9445062A94F4CF1B
:100A4000F50137FC859137FE81915F01B60190E099
:100A50000E94450621102A9421E0821A91088114EF
:100A6000910471F7E8C0843611F0893641F5F80138
:100A700037FE07C060817181828193810C5F1F4FB7
:100A800008C060817181072E000C880B990B0E5FE6
:100A90001F4FF32DFF763F2E97FF09C0909580954D
:100AA000709561957F4F8F4F9F4FF0683F2E2AE0E2
:100AB00030E0A3010E948106882E861845C0853744
:100AC00031F4232D2F7EB22E2AE030E025C0932D65
:100AD000997FB92E8F36C1F018F4883579F0B5C0FA
:100AE000803719F0883721F0B0C0E92FE061BE2EC1
:100AF000B4FE0DC0FB2DF460BF2E09C034FE0AC049
:100B0000292F2660B22E06C028E030E005C020E183
:100B100030E002C020E132E0F801B7FE07C060819A
:100B20007181828193810C5F1F4F06C0608171814A
:100B300080E090E00E5F1F4FA3010E948106882E87
:100B40008618FB2DFF773F2E36FE0DC0232D2E7FFE
:100B5000A22E891458F434FE0BC032FC09C0832D38
:100B60008E7EA82E05C0B82CA32C03C0B82C01C0C3
:100B7000B92CA4FE0FC0FE01E80DF11D8081803369
:100B800021F49A2D997EA92E09C0A2FE06C0B39425
:100B9000B39404C08A2D867809F0B394A3FC11C0E5
:100BA000A0FE06C0B21488F4280C922C9B180EC02C
:100BB000B21460F4B60180E290E00E944506B3945E
:100BC000F7CFB21418F42B1802C0982C212CA4FED5
:100BD00010C0B60180E390E00E944506A2FE17C057
:100BE000A1FC03C088E790E002C088E590E0B60170
:100BF0000CC08A2D867859F0A1FE02C08BE201C09C
:100C000080E2A7FC8DE2B60190E00E9445068914BF
:100C100038F4B60180E390E00E9445069A94F7CF3D
:100C20008A94F301E80DF11D8081B60190E00E94E5
:100C300045068110F5CF222009F442CEB60180E2AC
:100C400090E00E9445062A94F6CFF60186819781AE
:100C500002C08FEF9FEF2B96E2E10C94FB06FC01A4
:100C60000590615070400110D8F7809590958E0FD7
:100C70009F1F0895FC016150704001900110D8F74A
:100C8000809590958E0F9F1F08950F931F93CF937C
:100C9000DF93FB01238121FD03C08FEF9FEF2CC069
:100CA00022FF16C0468157812481358142175307A0
:100CB00044F4A081B1819D012F5F3F4F3183208398
:100CC0008C93268137812F5F3F4F3783268314C053
:100CD0008B01EC01FB010084F185E02D0995892B46
:100CE000E1F6D80116968D919C911797019617966B
:100CF0009C938E931697CE01DF91CF911F910F9108
:100D00000895FA01AA27283051F1203181F1E894A1
:100D10006F936E7F6E5F7F4F8F4F9F4FAF4FB1E0EE
:100D20003ED0B4E03CD0670F781F891F9A1FA11DE9
:100D3000680F791F8A1F911DA11D6A0F711D811DEA
:100D4000911DA11D20D009F468943F912AE0269FAF
:100D500011243019305D3193DEF6CF010895462F0E
:100D60004770405D4193B3E00FD0C9F7F6CF462FEF
:100D70004F70405D4A3318F0495D31FD4052419358
:100D800002D0A9F7EACFB4E0A69597958795779515
:100D90006795BA95C9F700976105710508959B019C
:100DA000AC010A2E06945795479537952795BA9525
:100DB000C9F7620F731F841F951FA01D08952F92FE
:100DC0003F924F925F926F927F928F929F92AF92DB
:100DD000BF92CF92DF92EF92FF920F931F93CF9328
:100DE000DF93CDB7DEB7CA1BDB0B0FB6F894DEBFBF
:100DF0000FBECDBF09942A88398848885F846E84E5
:100E00007D848C849B84AA84B984C884DF80EE802E
:100E1000FD800C811B81AA81B981CE0FD11D0FB637
:100E2000F894DEBF0FBECDBFED010895F894FFCF5B
:100E300025757573207C2044757479002575727052
:100E40006D20207C202575252500257572706D206C
:080E50007C202575252500001A
:00000001FF
