:100000000C942A000C9434000C9434000C943400AA
:100010000C9434000C9434000C9434000C94340090
:100020000C9434000C9434000C9434000C94340080
:100030000C9434000C9434000C9434000C94340070
:100040000C9434000C9434000C9434000C94340060
:100050000C94340011241FBECFE5D8E0DEBFCDBF25
:100060000E9436000C94A3000C9400008FEF8ABB12
:1000700081E0DA9ADC98DD98DE98DF982FEF39E698
:1000800098E1215030409040E1F700C00000DC9A38
:10009000DD98DE98DF982FEF39E698E12150304067
:1000A0009040E1F700C00000DC9ADD9ADE98DF980E
:1000B0002FEF39E698E1215030409040E1F700C041
:1000C0000000DC9ADD9ADE9ADF982FEF39E698E19E
:1000D000215030409040E1F700C00000DC9ADD9AEA
:1000E000DE9ADF9A2FEF39E698E1215030409040B8
:1000F000E1F700C000009BB398279BBB2FEF39E6C8
:1001000098E1215030409040E1F700C000009BB3DF
:1001100098279BBB2FEF39E698E121503040904063
:10012000E1F700C000009BB398279BBB2FEF39E697
:1001300098E1215030409040E1F700C000009BB3AF
:0A01400098279BBB96CFF894FFCFE1
:00000001FF
